:1000000022C053C069C250C04FC0CDC34DC04CC008
:100010004BC04AC049C048C013C146C045C00102D8
:100020000000040001020408102002020202020281
:100030000000000036000000000038000000000052
:1000400037007001760111241FBECFE5D2E0DEBF7C
:10005000CDBF84B78093290114BE0FB6F894A8953C
:1000600081B5886181BD11BC0FBE10E0A0E6B0E093
:10007000EEE8FDE002C005900D92AC3BB107D9F768
:1000800021E0ACEBB0E001C01D92A932B207E1F76C
:1000900010E0C2E2D0E003C02197FE0166D6C13273
:1000A000D107D1F7DDD567C6ABCF1F920F920FB640
:1000B0000F9211248F9381E08093DB008F910F903A
:1000C0000FBE0F901F9018954AE050E060E070E07E
:1000D0008CEB90E0BFD54AE050E061E070E08CEB43
:1000E00090E0B8D54AE050E062E070E08CEB90E040
:1000F000B1D58CEB90E0FEC44AE050E060EF70E0D8
:100100008CEB90E0A7D54AE050E061EF70E08CEB1B
:1001100090E0A0D54AE050E062EF70E08CEB90E018
:1001200099D58CEB90E0E6C468E670E08CEB90E04B
:10013000D9D460916600709167004AE050E08CEB82
:1001400090E088D560E870E08CEB90E0CBD46091D3
:10015000DB0070E04AE050E08CEB90E07BD58CEB6C
:1001600090E0C8D48091660090916700892B11F5CA
:1001700081E090E09093670080936600BDDF61E0CE
:1001800084E02ED464EF71E080E090E07DD360E005
:1001900084E026D464EF71E080E090E075D361E004
:1001A00084E01ED464EF71E080E090E06DD360E005
:1001B00084E016D48091DB00882371F11092DB007B
:1001C00061E084E00DD464EF71E080E090E05CD306
:1001D00060E084E005D464EF71E080E090E054D307
:1001E00061E084E0FDD364EF71E080E090E04CD307
:1001F00060E084E0F5D364EF71E080E090E044D308
:1002000061E084E0EDD364EF71E080E090E03CD306
:1002100060E084E0E5D358DF85B7806285BF8895CC
:1002200085B78F7D85BF0895F894A89588E181BD35
:1002300081B5896281BD81B5806481BD789408955E
:100240001F920F920FB60F9211242F933F934F934B
:100250005F936F937F938F939F93AF93BF93EF932E
:10026000FF930FB6F894A89581B5886181BD11BC44
:100270000FBE809166009091670001979093670090
:1002800080936600D1DFFF91EF91BF91AF919F9175
:100290008F917F916F915F914F913F912F910F902F
:1002A0000FBE0F901F90189540E855E260E070E097
:1002B0008CEB90E008D260E086E043D361E084E01C
:1002C00040D33798479AB0DF85B7877E806185BF76
:1002D0006EE870E08CEB90E005D48CEB90E00AC403
:1002E00020E041E060E08CEB90E0C4C18CEB90E05A
:1002F0006DC120911E0130911F0128173907B9F4F3
:100300009091DC008091DD00981789F0E091DC008D
:10031000F0E0E252FF4F80812091DC0030E02F5F5F
:100320003F4F2F7333272093DC0090E008958FEF29
:100330009FEF08951F93CF93DF93DC015C962D917F
:100340003C915D972115310539F481E090E01396D9
:100350009C938E9312973DC05196ED91FC915297CC
:1003600050969C915097892F80951FB75E964C911F
:100370005E9741FB772770F941FD6095F8944081C5
:10038000772311F0492B01C048234083E9012197CD
:10039000F1F748E0508160FF02C0592B01C058239B
:1003A0005083E9012197F1F76695415099F777233A
:1003B00021F090818923808303C08081982B9083D2
:1003C0001FBF5C968D919C915D970197F1F721E09D
:1003D00030E0C901DF91CF911F91089520911E0156
:1003E00030911F012817390781F49091DC0080912A
:1003F000DD00981751F0E091DC00F0E0E252FF4F91
:100400008081082E000C990B08958FEF9FEF0895BF
:1004100020911E0130911F012817390769F480913E
:10042000DD002091DC0090E0805C9F4F821B9109F1
:1004300060E470E035D4089580E090E00895209164
:100440001E0130911F012817390739F48FB7F8942E
:100450001092DD001092DC008FBF0895E0911E0124
:10046000F0911F01E817F90769F4A389B4899C91F9
:100470008589809589238C9310921F0110921E010B
:1004800081E0089580E00895CF93DF93EC018A8D99
:100490009B8D892BE9F080911E0190911F018C1793
:1004A0009D07B1F0009709F0D9DF8E8D8E7F8E8F7A
:1004B0001092DD001092DC00D0931F01C0931E014A
:1004C000EB89FC8990818D89892B808381E001C033
:1004D00080E0DF91CF9108951F920F920FB60F9297
:1004E00011242F933F934F935F936F937F938F9339
:1004F0009F93AF93BF93EF93FF93E0911E01F09111
:100500001F01309709F451C0968DA685B785858562
:1005100091FF04C09C91892329F447C09C918923B1
:1005200009F043C0A389B4899C918589809589236A
:100530008C93868997890197F1F7608D718DA685D7
:10054000B785558538E020E0CB010197F1F7822F80
:1005500090E095958795282F4C91452309F02068C8
:10056000315091F7868D81FD20958091DD0090E0DE
:1005700001968F7399273091DC00381749F0A091CC
:10058000DD00B0E0A252BF4F2C938093DD0003C08A
:10059000868D8160868F828D938D0197F1F7A38977
:1005A000B4899C918589892B8C93FF91EF91BF91A0
:1005B000AF919F918F917F916F915F914F913F91FB
:1005C0002F910F900FBE0F901F90189520EB30E0E9
:1005D000FC013183208342CF1F93CF93DF93EC0143
:1005E000162F6E8D6695617081E06827812FF8D196
:1005F00061E0812FA6D1612F70E0FB01EC5DFF4F20
:10060000E491E88BFB01E65DFF4FE491F0E0EE0F33
:10061000FF1FEA5CFF4F859194919A8B898BDF9144
:10062000CF911F9108951F93CF93DF93EC01162F65
:1006300060E0812F86D18E8D81FD03C061E0812F26
:10064000CFD11C87612F70E0FB01EC5DFF4FE4917F
:10065000ED87FB01E65DFF4FE491F0E0EE0FFF1F39
:10066000E05DFF4F859194919F878E87DF91CF91B9
:100670001F9108951F93CF93DF93EC01162F1B82D8
:100680001A8288EE93E0A0E0B0E08C839D83AE8375
:10069000BF8380EB90E0998388831F8A1E8A198E1E
:1006A000188E1B8E1A8E1D8E1C8E8E8D8E7F20FBBB
:1006B00081F98E8F642FCE018FDF612FCE01DF9104
:1006C000CF911F91B0CFCF93DF93EC019A01AB0193
:1006D0001B8E1A8E198E188E1F8A1E8A60E970ED85
:1006E00083E090E012D3B9012430310518F0C9013C
:1006F000039702C081E090E09D8F8C8F8C858630BF
:1007000008F03EC0C901969587958431910510F097
:10071000439702C081E090E09F8B8E8B663071051D
:1007200018F0C901059702C081E090E0998F888F89
:10073000C90163E070E0A3D2969587959695879559
:100740008D30910510F00C9702C081E090E09B8FF6
:100750008A8F8BB780628BBF9C85963018F020E023
:1007600030E002C025E330E03C8B2B8B81E001C000
:10077000880F9A95EAF78D8B8C8D9D8D0197F1F7F7
:10078000CE01DF91CF9180CE80B7807F80BF80B7D0
:10079000806880BF8CB580648CBD8FEF8DBD80B7C5
:1007A000846080BF08951F920F920FB60F9211249C
:1007B0002F933F938F939F93AF93BF93809121018A
:1007C00090912201A0912301B09124013091200148
:1007D00026E0230F2D3730F029E8230F0396A11DC3
:1007E000B11D03C00296A11DB11D2093200180936D
:1007F000210190932201A0932301B09324018091C1
:10080000250190912601A0912701B0912801019620
:10081000A11DB11D8093250190932601A09327016E
:10082000B0932801BF91AF919F918F913F912F91EC
:100830000F900FBE0F901F9018953FB7F8948091BE
:10084000250190912601A0912701B091280122B79E
:1008500008B601FE05C02F3F19F00196A11DB11D7C
:100860003FBFBA2FA92F982F8827820F911DA11D56
:10087000B11DBC01CD0143E0660F771F881F991F92
:100880004A95D1F708950895CF92DF92EF92FF92A3
:10089000CF93DF936B017C01D0DFEB01C114D10456
:1008A000E104F10479F0EFDFC8DF6C1B7D0B683EDB
:1008B0007340A0F381E0C81AD108E108F108C851DB
:1008C000DC4FF2CFDF91CF91FF90EF90DF90CF9090
:1008D00008958AB582608ABD8AB581608ABD83B772
:1008E000887F826083BF789489B7826089BF4CDF3C
:1008F00086B18877836886B9379A0895813031F454
:100900008AB58F778ABD8AB58F7B07C0823039F46C
:100910008AB58F7D8ABD8AB58F7E8ABD0895833062
:1009200039F480B78F7D80BF80B78F7E80BF0895F8
:10093000843031F48CB58F7D8CBD8CB58F7E8CBDB1
:100940000895CF93DF9387FF11C08F7741F08130F7
:1009500041F0823041F0833041F08FEF07C085E0F5
:1009600005C082E003C084E001C083E090E0FC01A8
:10097000EC5DFF4F2491FC01E65DFF4F84918823DD
:1009800061F190E0880F991FFC01E45CFF4FC59175
:10099000D491FC01EA5CFF4FA591B491611109C0AB
:1009A0009FB7F8948881209582238883EC912E2329
:1009B0000BC0623061F49FB7F8943881822F809524
:1009C00083238883EC912E2B2C939FBF06C08FB777
:1009D000F894E8812E2B28838FBFDF91CF91089563
:1009E0000F931F93CF93DF931F92CDB7DEB787FF8F
:1009F00011C08F7741F0813041F0823041F0833077
:100A000041F08FEF07C085E005C082E003C084E0BD
:100A100001C083E0282F30E0F901E25EFF4F8491AE
:100A2000F901EC5DFF4F1491F901E65DFF4F049170
:100A30000023D9F0882319F0698360DF6981E02FF2
:100A4000F0E0EE0FFF1FEA5CFF4FA591B4918FB766
:100A5000611106C0F8949C91E12FE095E92303C051
:100A6000F894EC91E12BEC938FBF0F90DF91CF9135
:100A70001F910F910895CF92DF92EF92FF920F9303
:100A80001F93CF93DF936C01EB017B01E40EF51E06
:100A900000E010E0CE15DF0561F06991D601ED911F
:100AA000FC910190F081E02DC6010995080F191FF6
:100AB000F1CFC801DF91CF911F910F91FF90EF907F
:100AC000DF90CF900895FB0101900020E9F7319766
:100AD000AF01461B570BDC01ED91FC910280F381C5
:100AE000E02D0994F0CFDC01ED91FC910190F081B3
:100AF000E02D09940F931F93CF93DF93EC016DE0EA
:100B0000F2DF8C016AE0CE01EEDF800F911FDF91F2
:100B1000CF911F910F9108958F929F92AF92BF92A4
:100B2000CF92DF92EF92FF920F931F93CF93DF93B9
:100B3000CDB7DEB7A1970FB6F894DEBF0FBECDBF1D
:100B40006C01142FE52FCB01022F19A2223008F4DB
:100B50000AE07E0121E2E20EF11C802E912CA12CF4
:100B6000B12C612F7E2FA5019401ADD0802F622F73
:100B70007DD0181B81E0E81AF1081A3014F4105DDA
:100B800001C0195CF7011083122FE32FCA01232B38
:100B9000242B252B31F7B701C60195DFA1960FB69F
:100BA000F894DEBF0FBECDBFDF91CF911F910F91A3
:100BB000FF90EF90DF90CF90BF90AF909F908F907D
:100BC0000895CF92DF92EF92FF920F931F93CF93EE
:100BD000DF93EC016A017B012115310579F4E8818D
:100BE000F9810190F081E02D642FDF91CF911F9169
:100BF0000F91FF90EF90DF90CF9009942A3031054C
:100C000001F577FF0CC06DE26EDF8C01F094E0948B
:100C1000D094C094C11CD11CE11CF11C02C000E0A6
:100C200010E02AE0B701A601CE0176DF800F911F08
:100C3000DF91CF911F910F91FF90EF90DF90CF90B8
:100C40000895DF91CF911F910F91FF90EF90DF906A
:100C5000CF9062CF9A01AB01770F660B770BB1CFC4
:100C600081B781BF36DE20DB5FDAFECF002480FD56
:100C7000060E660F11F08695D1F7802D0895002499
:100C8000552704C0080E591F880F991F009729F097
:100C900076956795B8F37105B9F7802D952F08956E
:100CA00097FB072E16F4009406D077FD08D049D0A4
:100CB00007FC05D03EF4909581959F4F089570955F
:100CC00061957F4F0895A1E21A2EAA1BBB1BFD015F
:100CD0000DC0AA1FBB1FEE1FFF1FA217B307E4071B
:100CE000F50720F0A21BB30BE40BF50B661F771F73
:100CF000881F991F1A9469F7609570958095909553
:100D00009B01AC01BD01CF010895052E97FB16F4A0
:100D100000940FD057FD05D0D6DF07FC02D046F473
:100D200008C050954095309521953F4F4F4F5F4FEC
:100D3000089590958095709561957F4F8F4F9F4F47
:100D40000895AA1BBB1B51E107C0AA1FBB1FA61712
:100D5000B70710F0A61BB70B881F991F5A95A9F764
:100D600080959095BC01CD010895EE0FFF1F059071
:100D7000F491E02D099410E0C2E2D0E003C0FE013E
:0E0D8000F4DF2196C332D107D1F7F894FFCFEC
:100D8E0000002A01800001004C6F6F7020576174C3
:100D9E006368646F67436F756E746572203D2000E3
:100DAE00202F2054726170706564203D2000536DB9
:100DBE00617274205472617020436F6E74726F6C26
:100DCE006C657220737461727465640000000000BB
:0C0DDE009A013B0508027901EE011F029A
:00000001FF
